{
  "_format": "hh-sol-artifact-1",
  "contractName": "MultiToken",
  "sourceName": "contracts/MultiToken.sol",
  "abi": [
    {
      "inputs": [],
      "stateMutability": "nonpayable",
      "type": "constructor"
    },
    {
      "inputs": [
        {
          "internalType": "address",
          "name": "sender",
          "type": "address"
        },
        {
          "internalType": "uint256",
          "name": "balance",
          "type": "uint256"
        },
        {
          "internalType": "uint256",
          "name": "needed",
          "type": "uint256"
        },
        {
          "internalType": "uint256",
          "name": "tokenId",
          "type": "uint256"
        }
      ],
      "name": "ERC1155InsufficientBalance",
      "type": "error"
    },
    {
      "inputs": [
        {
          "internalType": "address",
          "name": "approver",
          "type": "address"
        }
      ],
      "name": "ERC1155InvalidApprover",
      "type": "error"
    },
    {
      "inputs": [
        {
          "internalType": "uint256",
          "name": "idsLength",
          "type": "uint256"
        },
        {
          "internalType": "uint256",
          "name": "valuesLength",
          "type": "uint256"
        }
      ],
      "name": "ERC1155InvalidArrayLength",
      "type": "error"
    },
    {
      "inputs": [
        {
          "internalType": "address",
          "name": "operator",
          "type": "address"
        }
      ],
      "name": "ERC1155InvalidOperator",
      "type": "error"
    },
    {
      "inputs": [
        {
          "internalType": "address",
          "name": "receiver",
          "type": "address"
        }
      ],
      "name": "ERC1155InvalidReceiver",
      "type": "error"
    },
    {
      "inputs": [
        {
          "internalType": "address",
          "name": "sender",
          "type": "address"
        }
      ],
      "name": "ERC1155InvalidSender",
      "type": "error"
    },
    {
      "inputs": [
        {
          "internalType": "address",
          "name": "operator",
          "type": "address"
        },
        {
          "internalType": "address",
          "name": "owner",
          "type": "address"
        }
      ],
      "name": "ERC1155MissingApprovalForAll",
      "type": "error"
    },
    {
      "anonymous": false,
      "inputs": [
        {
          "indexed": true,
          "internalType": "address",
          "name": "account",
          "type": "address"
        },
        {
          "indexed": true,
          "internalType": "address",
          "name": "operator",
          "type": "address"
        },
        {
          "indexed": false,
          "internalType": "bool",
          "name": "approved",
          "type": "bool"
        }
      ],
      "name": "ApprovalForAll",
      "type": "event"
    },
    {
      "anonymous": false,
      "inputs": [
        {
          "indexed": true,
          "internalType": "address",
          "name": "operator",
          "type": "address"
        },
        {
          "indexed": true,
          "internalType": "address",
          "name": "from",
          "type": "address"
        },
        {
          "indexed": true,
          "internalType": "address",
          "name": "to",
          "type": "address"
        },
        {
          "indexed": false,
          "internalType": "uint256[]",
          "name": "ids",
          "type": "uint256[]"
        },
        {
          "indexed": false,
          "internalType": "uint256[]",
          "name": "values",
          "type": "uint256[]"
        }
      ],
      "name": "TransferBatch",
      "type": "event"
    },
    {
      "anonymous": false,
      "inputs": [
        {
          "indexed": true,
          "internalType": "address",
          "name": "operator",
          "type": "address"
        },
        {
          "indexed": true,
          "internalType": "address",
          "name": "from",
          "type": "address"
        },
        {
          "indexed": true,
          "internalType": "address",
          "name": "to",
          "type": "address"
        },
        {
          "indexed": false,
          "internalType": "uint256",
          "name": "id",
          "type": "uint256"
        },
        {
          "indexed": false,
          "internalType": "uint256",
          "name": "value",
          "type": "uint256"
        }
      ],
      "name": "TransferSingle",
      "type": "event"
    },
    {
      "anonymous": false,
      "inputs": [
        {
          "indexed": false,
          "internalType": "string",
          "name": "value",
          "type": "string"
        },
        {
          "indexed": true,
          "internalType": "uint256",
          "name": "id",
          "type": "uint256"
        }
      ],
      "name": "URI",
      "type": "event"
    },
    {
      "inputs": [
        {
          "internalType": "address",
          "name": "account",
          "type": "address"
        },
        {
          "internalType": "uint256",
          "name": "id",
          "type": "uint256"
        }
      ],
      "name": "balanceOf",
      "outputs": [
        {
          "internalType": "uint256",
          "name": "",
          "type": "uint256"
        }
      ],
      "stateMutability": "view",
      "type": "function"
    },
    {
      "inputs": [
        {
          "internalType": "address[]",
          "name": "accounts",
          "type": "address[]"
        },
        {
          "internalType": "uint256[]",
          "name": "ids",
          "type": "uint256[]"
        }
      ],
      "name": "balanceOfBatch",
      "outputs": [
        {
          "internalType": "uint256[]",
          "name": "",
          "type": "uint256[]"
        }
      ],
      "stateMutability": "view",
      "type": "function"
    },
    {
      "inputs": [
        {
          "internalType": "address",
          "name": "account",
          "type": "address"
        },
        {
          "internalType": "address",
          "name": "operator",
          "type": "address"
        }
      ],
      "name": "isApprovedForAll",
      "outputs": [
        {
          "internalType": "bool",
          "name": "",
          "type": "bool"
        }
      ],
      "stateMutability": "view",
      "type": "function"
    },
    {
      "inputs": [
        {
          "internalType": "address",
          "name": "account",
          "type": "address"
        },
        {
          "internalType": "uint256",
          "name": "id",
          "type": "uint256"
        },
        {
          "internalType": "uint256",
          "name": "amount",
          "type": "uint256"
        },
        {
          "internalType": "bytes",
          "name": "data",
          "type": "bytes"
        }
      ],
      "name": "mint",
      "outputs": [],
      "stateMutability": "nonpayable",
      "type": "function"
    },
    {
      "inputs": [
        {
          "internalType": "address",
          "name": "to",
          "type": "address"
        },
        {
          "internalType": "uint256[]",
          "name": "ids",
          "type": "uint256[]"
        },
        {
          "internalType": "uint256[]",
          "name": "amounts",
          "type": "uint256[]"
        },
        {
          "internalType": "bytes",
          "name": "data",
          "type": "bytes"
        }
      ],
      "name": "mintBatch",
      "outputs": [],
      "stateMutability": "nonpayable",
      "type": "function"
    },
    {
      "inputs": [
        {
          "internalType": "address",
          "name": "from",
          "type": "address"
        },
        {
          "internalType": "address",
          "name": "to",
          "type": "address"
        },
        {
          "internalType": "uint256[]",
          "name": "ids",
          "type": "uint256[]"
        },
        {
          "internalType": "uint256[]",
          "name": "values",
          "type": "uint256[]"
        },
        {
          "internalType": "bytes",
          "name": "data",
          "type": "bytes"
        }
      ],
      "name": "safeBatchTransferFrom",
      "outputs": [],
      "stateMutability": "nonpayable",
      "type": "function"
    },
    {
      "inputs": [
        {
          "internalType": "address",
          "name": "from",
          "type": "address"
        },
        {
          "internalType": "address",
          "name": "to",
          "type": "address"
        },
        {
          "internalType": "uint256",
          "name": "id",
          "type": "uint256"
        },
        {
          "internalType": "uint256",
          "name": "value",
          "type": "uint256"
        },
        {
          "internalType": "bytes",
          "name": "data",
          "type": "bytes"
        }
      ],
      "name": "safeTransferFrom",
      "outputs": [],
      "stateMutability": "nonpayable",
      "type": "function"
    },
    {
      "inputs": [
        {
          "internalType": "address",
          "name": "operator",
          "type": "address"
        },
        {
          "internalType": "bool",
          "name": "approved",
          "type": "bool"
        }
      ],
      "name": "setApprovalForAll",
      "outputs": [],
      "stateMutability": "nonpayable",
      "type": "function"
    },
    {
      "inputs": [
        {
          "internalType": "bytes4",
          "name": "interfaceId",
          "type": "bytes4"
        }
      ],
      "name": "supportsInterface",
      "outputs": [
        {
          "internalType": "bool",
          "name": "",
          "type": "bool"
        }
      ],
      "stateMutability": "view",
      "type": "function"
    },
    {
      "inputs": [
        {
          "internalType": "uint256",
          "name": "_tokenId",
          "type": "uint256"
        }
      ],
      "name": "uri",
      "outputs": [
        {
          "internalType": "string",
          "name": "",
          "type": "string"
        }
      ],
      "stateMutability": "pure",
      "type": "function"
    }
  ],
  "bytecode": "0x60806040523480156200001157600080fd5b506040518060800160405280604d8152602001620029a5604d91396200003d816200004460201b60201c565b50620003ba565b8060029081620000559190620002d3565b5050565b600081519050919050565b7f4e487b7100000000000000000000000000000000000000000000000000000000600052604160045260246000fd5b7f4e487b7100000000000000000000000000000000000000000000000000000000600052602260045260246000fd5b60006002820490506001821680620000db57607f821691505b602082108103620000f157620000f062000093565b5b50919050565b60008190508160005260206000209050919050565b60006020601f8301049050919050565b600082821b905092915050565b6000600883026200015b7fffffffffffffffffffffffffffffffffffffffffffffffffffffffffffffffff826200011c565b6200016786836200011c565b95508019841693508086168417925050509392505050565b6000819050919050565b6000819050919050565b6000620001b4620001ae620001a8846200017f565b62000189565b6200017f565b9050919050565b6000819050919050565b620001d08362000193565b620001e8620001df82620001bb565b84845462000129565b825550505050565b600090565b620001ff620001f0565b6200020c818484620001c5565b505050565b5b81811015620002345762000228600082620001f5565b60018101905062000212565b5050565b601f82111562000283576200024d81620000f7565b62000258846200010c565b8101602085101562000268578190505b6200028062000277856200010c565b83018262000211565b50505b505050565b600082821c905092915050565b6000620002a86000198460080262000288565b1980831691505092915050565b6000620002c3838362000295565b9150826002028217905092915050565b620002de8262000059565b67ffffffffffffffff811115620002fa57620002f962000064565b5b620003068254620000c2565b6200031382828562000238565b600060209050601f8311600181146200034b576000841562000336578287015190505b620003428582620002b5565b865550620003b2565b601f1984166200035b86620000f7565b60005b8281101562000385578489015182556001820191506020850194506020810190506200035e565b86831015620003a55784890151620003a1601f89168262000295565b8355505b6001600288020188555050505b505050505050565b6125db80620003ca6000396000f3fe608060405234801561001057600080fd5b506004361061009d5760003560e01c80634e1273f4116100665780634e1273f41461016a578063731133e91461019a578063a22cb465146101b6578063e985e9c5146101d2578063f242432a146102025761009d565b8062fdd58e146100a257806301ffc9a7146100d25780630e89341c146101025780631f7fdffa146101325780632eb2c2d61461014e575b600080fd5b6100bc60048036038101906100b79190611726565b61021e565b6040516100c99190611775565b60405180910390f35b6100ec60048036038101906100e791906117e8565b610278565b6040516100f99190611830565b60405180910390f35b61011c6004803603810190610117919061184b565b61035a565b6040516101299190611908565b60405180910390f35b61014c60048036038101906101479190611b27565b61038b565b005b61016860048036038101906101639190611be2565b61039d565b005b610184600480360381019061017f9190611d74565b610445565b6040516101919190611eaa565b60405180910390f35b6101b460048036038101906101af9190611ecc565b610554565b005b6101d060048036038101906101cb9190611f7b565b610566565b005b6101ec60048036038101906101e79190611fbb565b61057c565b6040516101f99190611830565b60405180910390f35b61021c60048036038101906102179190611ffb565b610610565b005b600080600083815260200190815260200160002060008473ffffffffffffffffffffffffffffffffffffffff1673ffffffffffffffffffffffffffffffffffffffff16815260200190815260200160002054905092915050565b60007fd9b67a26000000000000000000000000000000000000000000000000000000007bffffffffffffffffffffffffffffffffffffffffffffffffffffffff1916827bffffffffffffffffffffffffffffffffffffffffffffffffffffffff1916148061034357507f0e89341c000000000000000000000000000000000000000000000000000000007bffffffffffffffffffffffffffffffffffffffffffffffffffffffff1916827bffffffffffffffffffffffffffffffffffffffffffffffffffffffff1916145b806103535750610352826106b8565b5b9050919050565b606061036582610722565b60405160200161037591906121b2565b6040516020818303038152906040529050919050565b610397848484846107f0565b50505050565b60006103a7610876565b90508073ffffffffffffffffffffffffffffffffffffffff168673ffffffffffffffffffffffffffffffffffffffff16141580156103ec57506103ea868261057c565b155b156104305780866040517fe237d9220000000000000000000000000000000000000000000000000000000081526004016104279291906121ee565b60405180910390fd5b61043d868686868661087e565b505050505050565b6060815183511461049157815183516040517f5b059991000000000000000000000000000000000000000000000000000000008152600401610488929190612217565b60405180910390fd5b6000835167ffffffffffffffff8111156104ae576104ad61192f565b5b6040519080825280602002602001820160405280156104dc5781602001602082028036833780820191505090505b50905060005b845181101561054957610519610501828761097690919063ffffffff16565b610514838761098a90919063ffffffff16565b61021e565b82828151811061052c5761052b612240565b5b602002602001018181525050806105429061229e565b90506104e2565b508091505092915050565b6105608484848461099e565b50505050565b610578610571610876565b8383610a37565b5050565b6000600160008473ffffffffffffffffffffffffffffffffffffffff1673ffffffffffffffffffffffffffffffffffffffff16815260200190815260200160002060008373ffffffffffffffffffffffffffffffffffffffff1673ffffffffffffffffffffffffffffffffffffffff16815260200190815260200160002060009054906101000a900460ff16905092915050565b600061061a610876565b90508073ffffffffffffffffffffffffffffffffffffffff168673ffffffffffffffffffffffffffffffffffffffff161415801561065f575061065d868261057c565b155b156106a35780866040517fe237d92200000000000000000000000000000000000000000000000000000000815260040161069a9291906121ee565b60405180910390fd5b6106b08686868686610ba7565b505050505050565b60007f01ffc9a7000000000000000000000000000000000000000000000000000000007bffffffffffffffffffffffffffffffffffffffffffffffffffffffff1916827bffffffffffffffffffffffffffffffffffffffffffffffffffffffff1916149050919050565b60606000600161073184610cb2565b01905060008167ffffffffffffffff8111156107505761074f61192f565b5b6040519080825280601f01601f1916602001820160405280156107825781602001600182028036833780820191505090505b509050600082602001820190505b6001156107e5578080600190039150507f3031323334353637383961626364656600000000000000000000000000000000600a86061a8153600a85816107d9576107d86122e6565b5b04945060008503610790575b819350505050919050565b600073ffffffffffffffffffffffffffffffffffffffff168473ffffffffffffffffffffffffffffffffffffffff16036108625760006040517f57f447ce0000000000000000000000000000000000000000000000000000000081526004016108599190612315565b60405180910390fd5b610870600085858585610e05565b50505050565b600033905090565b600073ffffffffffffffffffffffffffffffffffffffff168473ffffffffffffffffffffffffffffffffffffffff16036108f05760006040517f57f447ce0000000000000000000000000000000000000000000000000000000081526004016108e79190612315565b60405180910390fd5b600073ffffffffffffffffffffffffffffffffffffffff168573ffffffffffffffffffffffffffffffffffffffff16036109625760006040517f01a835140000000000000000000000000000000000000000000000000000000081526004016109599190612315565b60405180910390fd5b61096f8585858585610e05565b5050505050565b600060208202602084010151905092915050565b600060208202602084010151905092915050565b600073ffffffffffffffffffffffffffffffffffffffff168473ffffffffffffffffffffffffffffffffffffffff1603610a105760006040517f57f447ce000000000000000000000000000000000000000000000000000000008152600401610a079190612315565b60405180910390fd5b600080610a1d8585610eb7565b91509150610a2f600087848487610e05565b505050505050565b600073ffffffffffffffffffffffffffffffffffffffff168273ffffffffffffffffffffffffffffffffffffffff1603610aa95760006040517fced3e100000000000000000000000000000000000000000000000000000000008152600401610aa09190612315565b60405180910390fd5b80600160008573ffffffffffffffffffffffffffffffffffffffff1673ffffffffffffffffffffffffffffffffffffffff16815260200190815260200160002060008473ffffffffffffffffffffffffffffffffffffffff1673ffffffffffffffffffffffffffffffffffffffff16815260200190815260200160002060006101000a81548160ff0219169083151502179055508173ffffffffffffffffffffffffffffffffffffffff168373ffffffffffffffffffffffffffffffffffffffff167f17307eab39ab6107e8899845ad3d59bd9653f200f220920489ca2b5937696c3183604051610b9a9190611830565b60405180910390a3505050565b600073ffffffffffffffffffffffffffffffffffffffff168473ffffffffffffffffffffffffffffffffffffffff1603610c195760006040517f57f447ce000000000000000000000000000000000000000000000000000000008152600401610c109190612315565b60405180910390fd5b600073ffffffffffffffffffffffffffffffffffffffff168573ffffffffffffffffffffffffffffffffffffffff1603610c8b5760006040517f01a83514000000000000000000000000000000000000000000000000000000008152600401610c829190612315565b60405180910390fd5b600080610c988585610eb7565b91509150610ca98787848487610e05565b50505050505050565b600080600090507a184f03e93ff9f4daa797ed6e38ed64bf6a1f0100000000000000008310610d10577a184f03e93ff9f4daa797ed6e38ed64bf6a1f0100000000000000008381610d0657610d056122e6565b5b0492506040810190505b6d04ee2d6d415b85acef81000000008310610d4d576d04ee2d6d415b85acef81000000008381610d4357610d426122e6565b5b0492506020810190505b662386f26fc100008310610d7c57662386f26fc100008381610d7257610d716122e6565b5b0492506010810190505b6305f5e1008310610da5576305f5e1008381610d9b57610d9a6122e6565b5b0492506008810190505b6127108310610dca576127108381610dc057610dbf6122e6565b5b0492506004810190505b60648310610ded5760648381610de357610de26122e6565b5b0492506002810190505b600a8310610dfc576001810190505b80915050919050565b610e1185858585610ee7565b600073ffffffffffffffffffffffffffffffffffffffff168473ffffffffffffffffffffffffffffffffffffffff1614610eb0576000610e4f610876565b90506001845103610e9f576000610e7060008661098a90919063ffffffff16565b90506000610e8860008661098a90919063ffffffff16565b9050610e98838989858589610f68565b5050610eae565b610ead81878787878761111c565b5b505b5050505050565b60608060405191506001825283602083015260408201905060018152826020820152604081016040529250929050565b600073ffffffffffffffffffffffffffffffffffffffff168473ffffffffffffffffffffffffffffffffffffffff1614610f56576040517f08c379a0000000000000000000000000000000000000000000000000000000008152600401610f4d9061237c565b60405180910390fd5b610f62848484846112d0565b50505050565b60008473ffffffffffffffffffffffffffffffffffffffff163b1115611114578373ffffffffffffffffffffffffffffffffffffffff1663f23a6e6187878686866040518663ffffffff1660e01b8152600401610fc99594939291906123f1565b6020604051808303816000875af192505050801561100557506040513d601f19601f820116820180604052508101906110029190612460565b60015b611089573d8060008114611035576040519150601f19603f3d011682016040523d82523d6000602084013e61103a565b606091505b50600081510361108157846040517f57f447ce0000000000000000000000000000000000000000000000000000000081526004016110789190612315565b60405180910390fd5b805181602001fd5b63f23a6e6160e01b7bffffffffffffffffffffffffffffffffffffffffffffffffffffffff1916817bffffffffffffffffffffffffffffffffffffffffffffffffffffffff19161461111257846040517f57f447ce0000000000000000000000000000000000000000000000000000000081526004016111099190612315565b60405180910390fd5b505b505050505050565b60008473ffffffffffffffffffffffffffffffffffffffff163b11156112c8578373ffffffffffffffffffffffffffffffffffffffff1663bc197c8187878686866040518663ffffffff1660e01b815260040161117d95949392919061248d565b6020604051808303816000875af19250505080156111b957506040513d601f19601f820116820180604052508101906111b69190612460565b60015b61123d573d80600081146111e9576040519150601f19603f3d011682016040523d82523d6000602084013e6111ee565b606091505b50600081510361123557846040517f57f447ce00000000000000000000000000000000000000000000000000000000815260040161122c9190612315565b60405180910390fd5b805181602001fd5b63bc197c8160e01b7bffffffffffffffffffffffffffffffffffffffffffffffffffffffff1916817bffffffffffffffffffffffffffffffffffffffffffffffffffffffff1916146112c657846040517f57f447ce0000000000000000000000000000000000000000000000000000000081526004016112bd9190612315565b60405180910390fd5b505b505050505050565b805182511461131a57815181516040517f5b059991000000000000000000000000000000000000000000000000000000008152600401611311929190612217565b60405180910390fd5b6000611324610876565b905060005b8351811015611539576000611347828661098a90919063ffffffff16565b9050600061135e838661098a90919063ffffffff16565b9050600073ffffffffffffffffffffffffffffffffffffffff168873ffffffffffffffffffffffffffffffffffffffff161461148b57600080600084815260200190815260200160002060008a73ffffffffffffffffffffffffffffffffffffffff1673ffffffffffffffffffffffffffffffffffffffff1681526020019081526020016000205490508181101561143357888183856040517f03dee4c500000000000000000000000000000000000000000000000000000000815260040161142a94939291906124f5565b60405180910390fd5b81810360008085815260200190815260200160002060008b73ffffffffffffffffffffffffffffffffffffffff1673ffffffffffffffffffffffffffffffffffffffff16815260200190815260200160002081905550505b600073ffffffffffffffffffffffffffffffffffffffff168773ffffffffffffffffffffffffffffffffffffffff1614611526578060008084815260200190815260200160002060008973ffffffffffffffffffffffffffffffffffffffff1673ffffffffffffffffffffffffffffffffffffffff168152602001908152602001600020600082825461151e919061253a565b925050819055505b5050806115329061229e565b9050611329565b5060018351036115f857600061155960008561098a90919063ffffffff16565b9050600061157160008561098a90919063ffffffff16565b90508573ffffffffffffffffffffffffffffffffffffffff168773ffffffffffffffffffffffffffffffffffffffff168473ffffffffffffffffffffffffffffffffffffffff167fc3d58168c5ae7397731d063d5bbf3d657854427343f4c083240f7aacaa2d0f6285856040516115e9929190612217565b60405180910390a45050611677565b8373ffffffffffffffffffffffffffffffffffffffff168573ffffffffffffffffffffffffffffffffffffffff168273ffffffffffffffffffffffffffffffffffffffff167f4a39dc06d4c0dbc64b70af90fd698a233a518aa5d07e595d983b8c0526c8f7fb868660405161166e92919061256e565b60405180910390a45b5050505050565b6000604051905090565b600080fd5b600080fd5b600073ffffffffffffffffffffffffffffffffffffffff82169050919050565b60006116bd82611692565b9050919050565b6116cd816116b2565b81146116d857600080fd5b50565b6000813590506116ea816116c4565b92915050565b6000819050919050565b611703816116f0565b811461170e57600080fd5b50565b600081359050611720816116fa565b92915050565b6000806040838503121561173d5761173c611688565b5b600061174b858286016116db565b925050602061175c85828601611711565b9150509250929050565b61176f816116f0565b82525050565b600060208201905061178a6000830184611766565b92915050565b60007fffffffff0000000000000000000000000000000000000000000000000000000082169050919050565b6117c581611790565b81146117d057600080fd5b50565b6000813590506117e2816117bc565b92915050565b6000602082840312156117fe576117fd611688565b5b600061180c848285016117d3565b91505092915050565b60008115159050919050565b61182a81611815565b82525050565b60006020820190506118456000830184611821565b92915050565b60006020828403121561186157611860611688565b5b600061186f84828501611711565b91505092915050565b600081519050919050565b600082825260208201905092915050565b60005b838110156118b2578082015181840152602081019050611897565b60008484015250505050565b6000601f19601f8301169050919050565b60006118da82611878565b6118e48185611883565b93506118f4818560208601611894565b6118fd816118be565b840191505092915050565b6000602082019050818103600083015261192281846118cf565b905092915050565b600080fd5b7f4e487b7100000000000000000000000000000000000000000000000000000000600052604160045260246000fd5b611967826118be565b810181811067ffffffffffffffff821117156119865761198561192f565b5b80604052505050565b600061199961167e565b90506119a5828261195e565b919050565b600067ffffffffffffffff8211156119c5576119c461192f565b5b602082029050602081019050919050565b600080fd5b60006119ee6119e9846119aa565b61198f565b90508083825260208201905060208402830185811115611a1157611a106119d6565b5b835b81811015611a3a5780611a268882611711565b845260208401935050602081019050611a13565b5050509392505050565b600082601f830112611a5957611a5861192a565b5b8135611a698482602086016119db565b91505092915050565b600080fd5b600067ffffffffffffffff821115611a9257611a9161192f565b5b611a9b826118be565b9050602081019050919050565b82818337600083830152505050565b6000611aca611ac584611a77565b61198f565b905082815260208101848484011115611ae657611ae5611a72565b5b611af1848285611aa8565b509392505050565b600082601f830112611b0e57611b0d61192a565b5b8135611b1e848260208601611ab7565b91505092915050565b60008060008060808587031215611b4157611b40611688565b5b6000611b4f878288016116db565b945050602085013567ffffffffffffffff811115611b7057611b6f61168d565b5b611b7c87828801611a44565b935050604085013567ffffffffffffffff811115611b9d57611b9c61168d565b5b611ba987828801611a44565b925050606085013567ffffffffffffffff811115611bca57611bc961168d565b5b611bd687828801611af9565b91505092959194509250565b600080600080600060a08688031215611bfe57611bfd611688565b5b6000611c0c888289016116db565b9550506020611c1d888289016116db565b945050604086013567ffffffffffffffff811115611c3e57611c3d61168d565b5b611c4a88828901611a44565b935050606086013567ffffffffffffffff811115611c6b57611c6a61168d565b5b611c7788828901611a44565b925050608086013567ffffffffffffffff811115611c9857611c9761168d565b5b611ca488828901611af9565b9150509295509295909350565b600067ffffffffffffffff821115611ccc57611ccb61192f565b5b602082029050602081019050919050565b6000611cf0611ceb84611cb1565b61198f565b90508083825260208201905060208402830185811115611d1357611d126119d6565b5b835b81811015611d3c5780611d2888826116db565b845260208401935050602081019050611d15565b5050509392505050565b600082601f830112611d5b57611d5a61192a565b5b8135611d6b848260208601611cdd565b91505092915050565b60008060408385031215611d8b57611d8a611688565b5b600083013567ffffffffffffffff811115611da957611da861168d565b5b611db585828601611d46565b925050602083013567ffffffffffffffff811115611dd657611dd561168d565b5b611de285828601611a44565b9150509250929050565b600081519050919050565b600082825260208201905092915050565b6000819050602082019050919050565b611e21816116f0565b82525050565b6000611e338383611e18565b60208301905092915050565b6000602082019050919050565b6000611e5782611dec565b611e618185611df7565b9350611e6c83611e08565b8060005b83811015611e9d578151611e848882611e27565b9750611e8f83611e3f565b925050600181019050611e70565b5085935050505092915050565b60006020820190508181036000830152611ec48184611e4c565b905092915050565b60008060008060808587031215611ee657611ee5611688565b5b6000611ef4878288016116db565b9450506020611f0587828801611711565b9350506040611f1687828801611711565b925050606085013567ffffffffffffffff811115611f3757611f3661168d565b5b611f4387828801611af9565b91505092959194509250565b611f5881611815565b8114611f6357600080fd5b50565b600081359050611f7581611f4f565b92915050565b60008060408385031215611f9257611f91611688565b5b6000611fa0858286016116db565b9250506020611fb185828601611f66565b9150509250929050565b60008060408385031215611fd257611fd1611688565b5b6000611fe0858286016116db565b9250506020611ff1858286016116db565b9150509250929050565b600080600080600060a0868803121561201757612016611688565b5b6000612025888289016116db565b9550506020612036888289016116db565b945050604061204788828901611711565b935050606061205888828901611711565b925050608086013567ffffffffffffffff8111156120795761207861168d565b5b61208588828901611af9565b9150509295509295909350565b600081905092915050565b7f68747470733a2f2f697066732e696f2f697066732f516d4e6f524a416755696560008201527f32396a787458345a6b626141353832774a4e65524536653536654343416b383260208201527f4e43482f00000000000000000000000000000000000000000000000000000000604082015250565b600061211f604483612092565b915061212a8261209d565b604482019050919050565b600061214082611878565b61214a8185612092565b935061215a818560208601611894565b80840191505092915050565b7f2e6a736f6e000000000000000000000000000000000000000000000000000000600082015250565b600061219c600583612092565b91506121a782612166565b600582019050919050565b60006121bd82612112565b91506121c98284612135565b91506121d48261218f565b915081905092915050565b6121e8816116b2565b82525050565b600060408201905061220360008301856121df565b61221060208301846121df565b9392505050565b600060408201905061222c6000830185611766565b6122396020830184611766565b9392505050565b7f4e487b7100000000000000000000000000000000000000000000000000000000600052603260045260246000fd5b7f4e487b7100000000000000000000000000000000000000000000000000000000600052601160045260246000fd5b60006122a9826116f0565b91507fffffffffffffffffffffffffffffffffffffffffffffffffffffffffffffffff82036122db576122da61226f565b5b600182019050919050565b7f4e487b7100000000000000000000000000000000000000000000000000000000600052601260045260246000fd5b600060208201905061232a60008301846121df565b92915050565b7f546f6b656e206e6f74207472616e7366657261626c6500000000000000000000600082015250565b6000612366601683611883565b915061237182612330565b602082019050919050565b6000602082019050818103600083015261239581612359565b9050919050565b600081519050919050565b600082825260208201905092915050565b60006123c38261239c565b6123cd81856123a7565b93506123dd818560208601611894565b6123e6816118be565b840191505092915050565b600060a08201905061240660008301886121df565b61241360208301876121df565b6124206040830186611766565b61242d6060830185611766565b818103608083015261243f81846123b8565b90509695505050505050565b60008151905061245a816117bc565b92915050565b60006020828403121561247657612475611688565b5b60006124848482850161244b565b91505092915050565b600060a0820190506124a260008301886121df565b6124af60208301876121df565b81810360408301526124c18186611e4c565b905081810360608301526124d58185611e4c565b905081810360808301526124e981846123b8565b90509695505050505050565b600060808201905061250a60008301876121df565b6125176020830186611766565b6125246040830185611766565b6125316060830184611766565b95945050505050565b6000612545826116f0565b9150612550836116f0565b92508282019050808211156125685761256761226f565b5b92915050565b600060408201905081810360008301526125888185611e4c565b9050818103602083015261259c8184611e4c565b9050939250505056fea2646970667358221220cb3d903886401ed16e36e134b87a5f084b7bc9f784578f4c0c334334ef7d117664736f6c6343000814003368747470733a2f2f697066732e696f2f697066732f516d4e6f524a416755696532396a787458345a6b626141353832774a4e65524536653536654343416b38324e43482f7b69647d2e6a736f6e",
  "linkReferences": {},
  "deployedLinkReferences": {}
}